:020000040800F2
:1000000068E3002029020008995E0008E95400080E
:100010004D5A0008C5050008A1990008000000001D
:10002000000000000000000000000000B1660008B1
:10003000410D000800000000B16400084567000899
:10004000430200084302000843020008430200087C
:10005000430200084302000843020008430200086C
:10006000430200084302000843020008490B00084D
:10007000590B0008690B0008790B0008890B000870
:10008000430200084302000843020008D9050008A3
:10009000C90500084302000843020008450D000896
:1000A000430200084302000843020008430200081C
:1000B000430200084302000843020008430200080C
:1000C00043020008430200084302000843020008FC
:1000D0004302000843020008430200088D73000831
:1000E00043020008430200084302000843020008DC
:1000F000430200083D68000843020008990B00080D
:1001000043020008430200084302000843020008BB
:10011000B56B0008616C0008430200084302000848
:10012000430200084302000843020008430200089B
:10013000430200084302000843020008F9050008D2
:1001400043020008E905000843020008095F0008AF
:10015000430200084302000843020008430200086B
:10016000430200084302000843020008430200085B
:100170004302000843020008430200080000000098
:10018000430200084302000800F002F800F03CF8C7
:100190000AA090E8000C82448344AAF10107DA45E2
:1001A00001D100F031F8AFF2090EBAE80F0013F0F8
:1001B000010F18BFFB1A43F001031847FCEC0000C5
:1001C0001CED0000103A24BF78C878C1FAD8520755
:1001D00024BF30C830C144BF04680C6070470000C1
:1001E0000023002400250026103A28BF78C1FBD840
:1001F000520728BF30C148BF0B6070471FB50EF0D3
:1002000054FC1FBD10B510BD00F063F91146FFF797
:10021000F5FF09F005FF00F081F903B4FFF7F2FFE5
:1002200003BC00F085F900000948804709480047F1
:10023000FEE7FEE7FEE7FEE7FEE7FEE7FEE7FEE796
:10024000FEE7FEE704480549054A064B70470000F3
:10025000296800088901000868CF002068E30020B1
:1002600068DF002068DF002053EA020C00F069809C
:100270002DE9F04B4FF00006002B1FBFB3FA83F5BA
:1002800003FA05F424FA05F65E4012BF1643B2FAEB
:1002900082F502FA05F4C5F120051EBF22FA05FC1D
:1002A00044EA0C04203556EA044C4FEA144418BFC3
:1002B000641C4FF000084FF00009904271EB030CF2
:1002C00039D3002919BFB1FA81F701FA07F6B0FA5C
:1002D00080F700FA07F6C7F120071EBF20FA07FCD7
:1002E00046EA0C062037B6FBF4FCA7EB0507103FE7
:1002F00007F01F0BCBF120062CFA06F60CFA0BFBCD
:1003000044BFB3460026202FA4BF5E464FF0000B2B
:100310005BEA060C08BF4FF0010B19EB0B0948EB29
:100320000608ABFB027C06FB02CC0BFB03CCC01B1C
:1003300071EB0C01C1E70B46024641464846BDE859
:10034000F08B13B5084318BF4FF0FF300146AFF3F1
:100350000080BDE81C407047032A40F2308010F056
:10036000030C00F0158011F8013BBCF1020F624450
:1003700098BF11F801CB00F8013B38BF11F8013BE1
:10038000A2F1040298BF00F801CB38BF00F8013B8E
:1003900011F0030300F02580083AC0F0088051F8FE
:1003A000043B083A51F804CBA0E80810F5E7121D09
:1003B0005CBF51F8043B40F8043BAFF30080D20728
:1003C00024BF11F8013B11F801CB48BF11F8012BF4
:1003D00024BF00F8013B00F801CB48BF00F8012B17
:1003E000704710B5203AC0F00B80B1E81850A0E873
:1003F0001850B1E81850A0E81850203ABFF4F5AFF3
:100400005FEA027C24BFB1E81850A0E8185044BF4E
:1004100018C918C0BDE810405FEA827C24BF51F8BB
:10042000043B40F8043B08BF7047D20728BF31F8AF
:10043000023B48BF11F8012B28BF20F8023B48BF00
:1004400000F8012B704702F0FF0343EA032242EA5F
:10045000024200F002B84FF0000200B51346944685
:100460009646203922BFA0E80C50A0E80C50B1F10C
:100470002001BFF4F7AF090728BFA0E80C5048BF20
:100480000CC05DF804EB890028BF40F8042B08BFBE
:10049000704748BF20F8022B11F0804F18BF00F8BA
:1004A000012B704770477047704710B500F00CF88B
:1004B000006810BD10B5044600F006F8046010BDD9
:1004C00000487047F800002000487047F8000020FE
:1004D00070477546FFF7F4FFAE4605006946534680
:1004E00020F00700854618B020B5FFF7ABFEBDE849
:1004F00020404FF000064FF000074FF000084FF08B
:10050000000BAC46ACE8C009ACE8C009ACE8C009D7
:10051000ACE8C00921F007018D46704710B50446CC
:10052000AFF300802046BDE81040FFF776BE000024
:1005300001491820ABBEFEE72600020084B08DED15
:10054000020ACDED010A9DED020A9DED011A30EE81
:10055000410A8DED000A9DED000A9FED161AB4EEDA
:10056000410AF1EE10FA09DDFFE79DED000A9FED6B
:10057000141A30EE010A8DED030A16E09DED000A13
:100580009FED0D1AB4EE410AF1EE10FA09DAFFE719
:100590009DED000A9FED091A30EE010A8DED030A68
:1005A00003E0FFE700980390FFE79DED030A04B026
:1005B000704700BF00003443000034C30000B44360
:1005C0000000B4C3FEE7000080B541F65030C2F22F
:1005D000000000F03FFF80BD80B541F65030C2F210
:1005E000000000F037FF80BD80B541F67830C2F2E0
:1005F000000000F02FFF80BD80B541F67830C2F2D8
:10060000000000F027FF80BD80B58AB008900791F8
:1006100000200690059004900390029001900090B5
:100620000898016846F20042C4F20002891A18BF15
:100630000121079B6A4600F003FE029818B9FFE704
:100640000098099002E001980990FFE709980AB024
:1006500080BD000080B586B0059072B60598006830
:1006600046F20041C4F20001884242D1FFE7FFE7B1
:1006700041F23A60C2F200000078C8B3FFE7059883
:100680000068806802909DF80B0010F01C0F14D0D9
:10069000FFE7059841F23B61C2F200010A7841F29E
:1006A0003C61C2F2000101EB421101F1180204ABFE
:1006B00000F046FC8DF80F0000E019E041F23A61CD
:1006C000C2F2000108780138087041F23B60C2F2C2
:1006D00000000178013101700078082807D1FFE798
:1006E00041F23B61C2F2000100200870FFE7BFE762
:1006F00041E0FFE741F24470C2F200000078C8B365
:10070000FFE705980068806801909DF8070010F0E9
:100710001C0F14D0FFE7059841F24571C2F20001A9
:100720000A7841F24871C2F2000101EB421101F175
:10073000180204AB00F004FC8DF80F0000E019E093
:1007400041F24471C2F2000108780138087041F2A8
:100750004570C2F20000017801310170007808286C
:1007600007D1FFE741F24571C2F200010020087095
:10077000FFE7BFE7FFE762B69DF80F0030B1FFE784
:1007800005989DF80F1000F01FF8FFE706B080BD38
:1007900080B58CB00B900A9109920A9803900020C2
:1007A000049005900690082107918DF82000029092
:1007B0000B98099A03A902AB00F0C2FB8DF8070061
:1007C0009DF807000CB080BD82B001908DF8031039
:1007D000012002B0704700000020704700207047E1
:1007E00010B541F67404C2F2000440F62861C2F26A
:1007F00000012046002206F083FF40F22861C2F289
:100800000001204606F06EFF002010BD80B500F00C
:1008100003F8002080BD000080B584B003900291F1
:1008200042F2E430C2F200000068029901AA0023FB
:100830000BF022FD0298006841F65C01C2F2000153
:100840000860019860B1FFE74EF60451CEF2000156
:100850004FF080500860BFF34F8FBFF36F8FFFE7FB
:1008600004B080BD0020704780B58CB00B90002094
:1008700007900121089101900290039004900E20AE
:100880000A900B98006846F20041C4F200018842C9
:1008900004D1FFE7002006900590FFE70B98006861
:1008A00046F60001C4F20001884205D1FFE70E20A0
:1008B000069001200590FFE7012009900B9801A9FF
:1008C00000F0EAFB0CB080BD80B58AB009900CF056
:1008D00049F9089040F27C11C2F20001069141F6FC
:1008E0007830C2F20000886240F20222CA6242F20C
:1008F0005C52C2F20002106002235360C2F8F4009E
:100900000320C2F8F8004DF20A70C3F6A3508863C2
:100910000022CA630A6444F20000C4F21C60486406
:100920004AF20003C4F20C638B650023C4F2501337
:10093000CB654FF07C530B664A6688664FF08D405E
:10094000C867FFE740F26411C2F2000151F8012FBD
:10095000009142F25C50C2F200000190C0F8C02049
:100960004A68C0F8B42100F1F402039251F8082F4C
:1009700082F00042C0F8C420496881F00041C0F80C
:10098000B81190ED230ABDEEC00A10EE101A42F223
:10099000E832C2F20002518090ED600ABDEEC00A5A
:1009A00010EE100A908041F65030C2F200004FF471
:1009B0000071059105F044FA0198D0F8B02041F695
:1009C0006401C2F2000102910A60D0F8A4214A60D9
:1009D00091ED000A09F060F90299039891ED010A7E
:1009E00009F05AF941F66C00C2F2000090ED000ADD
:1009F0009FED211A80EE010AB3EE031A20EE010AE0
:100A00009FED1E1A20EE010A8DED070A40F27C10C0
:100A1000C2F20000049090ED0D0AB8EEC00A41F653
:100A20007001C2F20001D1ED000A383005F038FC47
:100A30000498B0F9021000EE101AB8EEC00AD0ED1A
:100A4000150A5C3005F02CFC0498059990ED1E0AFF
:100A5000BDEEC00A10EE100A41F23C72C2F2000272
:100A6000508041F67830C2F2000005F0E9F908A89C
:100A700002210AF0B7FE65E7723AB942000000466B
:100A800080B586B00590059804900498806803901E
:100A90000CF068F80290FFE700208DF80700009046
:100AA000FFE70098039988423DDAFFE70498009930
:100AB00050F8210041688847014642F25850C2F27E
:100AC000000001700078012809D1FFE79DF80700B8
:100AD000009A0121914008438DF807001EE042F280
:100AE0005850C2F20000007838B9FFE70498009926
:100AF00050F82100016888470FE042F25850C2F2D6
:100B000000000078032807D1FFE70498C268009925
:100B100050F821109047FFE7FFE7FFE7FFE7009855
:100B200001300090BDE7049800694FF47A714843A2
:100B300044F6D351C1F26201A0FB0110810902A861
:100B40000AF050FEA8E7000080B541F66040C2F20E
:100B5000000001F093F980BD80B541F62050C2F24B
:100B6000000001F08BF980BD80B541F6A030C2F2E3
:100B7000000001F083F980BD80B541F68050C2F2DB
:100B8000000001F07BF980BD80B541F60040C2F263
:100B9000000001F073F980BD80B541F6C040C2F29B
:100BA000000001F06BF980BD82B0019001980078DF
:100BB00010384AF6AB21CAF6AA21A0FB01100009A1
:100BC000009000994EF64C40C0F60000405C019940
:100BD000C8650098042807D3FFE701990868042234
:100BE00062F30900886506E00199086840F2FF3267
:100BF00090438865FFE70198806D02B07047000060
:100C000086B0059000208DF813000598806A039047
:100C10000598806910BBFFE70398029003281BD852
:100C20000299DFE801F0020D0218059890F82F00F4
:100C3000C00720B1FFE701208DF81300FFE70CE0AB
:100C40000598C06AB0F1C07F04D1FFE701208DF89C
:100C50001300FFE701E000E0FFE745E00598806949
:100C6000B0F5005F25D1FFE70398019003281ED857
:100C70000199DFE801F00206021101208DF813004E
:100C800016E0059890F82F00C00720B1FFE701207B
:100C90008DF81300FFE70BE00598C06AB0F1C07F44
:100CA00004D1FFE701208DF81300FFE700E0FFE724
:100CB00019E003980090032804D3FFE70098032865
:100CC00004D00EE001208DF813000BE0059890F899
:100CD0002F00C00720B1FFE701208DF81300FFE7C8
:100CE00000E0FFE7FFE7FFE79DF8130006B070475D
:100CF00084B0039002910192009303980168086800
:100D000020F48020086000980399096848600398DF
:100D10008068402809D1FFE7019803990968886035
:100D2000029803990968C86008E002980399096865
:100D30008860019803990968C860FFE704B07047AC
:100D40007047000080B54FF4807001F069FB4FF4EC
:100D5000007001F065FB80BD72B600BFFEE70000C9
:100D600083B002900191009200989DED020AB8EEC6
:100D7000C04A90ED000A90ED013A90ED022A90ED04
:100D8000031A20EE040A20EE040A23EE044A9DED25
:100D9000013AB8EEC33A24EE034A30EE040A22EEDA
:100DA000032A22EE032A30EE020A30EE010A03B0D3
:100DB0007047000080B58EB00A900A98C06809900C
:100DC000099890ED021A90ED2E0AB8EEC11AB3EE12
:100DD000042A8DED012A81EE021A9FED322A21EEBE
:100DE000021A31EE011A9FED302A8DED022A21EE12
:100DF000021AB1EE002A8DED032A21EE021A9FEDB0
:100E00002B2A8DED042A21EE021A8DED071A9FED93
:100E1000281A8DED051A20EE010A9FED261A8DED98
:100E2000061A80EE010A0CF0EFFA9DED017A9DEDB5
:100E3000026A9DED035A9DED044A9DED052A9DED44
:100E4000061AB0EE403A9DED070A20EE030A8DED3A
:100E50000B0A099890ED023A90ED2E0AB8EEC33ACB
:100E600083EE073A33EE033A23EE063A23EE053AD1
:100E700023EE043A8DED083A20EE020A80EE010AD4
:100E80000CF06AFBB0EE401A9DED080A20EE010A54
:100E90008DED0C0A9DED0B0ADDED0C0A9DED0D1A92
:100EA0000EB080BD00007042DA0F4940A69B443D61
:100EB000DB0F494000003443B0B547F61021C1F6BE
:100EC000FF7108688A68801808BFB0BD40F2D40579
:100ED000C2F200054C68A91C082204F007FB05F1CA
:100EE00012012046042204F001FBB0BD84B0029040
:100EF0000191029890F820008DF803009DF80300FE
:100F0000012805D0FFE79DF8030002280AD1FFE77A
:100F1000019A0298016848691043486100208DF8E1
:100F20000F0008E00299486A40F4802048620120DE
:100F30008DF80F00FFE79DF80F0004B07047000028
:100F400088B00690059104920393069890F82000CB
:100F50008DF8070006980068806800900598806802
:100F600008B9FFE700E0FFE79DF80700012806D079
:100F7000FFE79DF80700022840F08080FFE79DF81A
:100F80000300400700280CD4FFE79DF8030000078A
:100F9000002806D4FFE79DF80300C006002864D5AA
:100FA000FFE70098C0F30160029002990120884099
:100FB000039908600598806868B9FFE7059801689B
:100FC000C06840EA415006990968029A01EB021193
:100FD000C1F880010EE005994A688868C96840EA4E
:100FE000C200084306990968029A01EB0211C1F890
:100FF0008001FFE70598006906990968029A01EBEC
:101000000211C1F884010598007D01280CD1FFE789
:1010100006980068029900EB0111D1F8840140F4B0
:101020008070C1F88401FFE7049840680699096858
:10103000029A01EB0211C1F88C010498006806992C
:101040000968029A01EB0211C1F88801069800684C
:10105000029900EB0111D1F8800140F00100C1F8C4
:10106000800100208DF81F0011E00699486A40F4C5
:101070000010486201208DF81F0008E00699486AB8
:1010800040F48020486201208DF81F00FFE79DF8A2
:101090001F0008B07047000086B0049003910498C8
:1010A00090F820008DF803009DF80300012806D079
:1010B000FFE79DF80300022840F0B080FFE746F20A
:1010C0000040C4F2000001900199D1F8000240F004
:1010D0000100C1F800020199D1F8000220F47C500F
:1010E000C1F800020398426A0199D1F8000240EA6F
:1010F0000220C1F800020398406900F01F0101209E
:1011000088400290029A0199D1F81C029043C1F8DC
:101110001C020398C069F0B9FFE7029A0199D1F85F
:101120000C029043C1F80C02039A9088D16852696E
:1011300040EA0140019901EBC201C1F84002039A63
:1011400010889168526940EA0140019901EBC2019F
:10115000C1F84402FFE70398C06901281ED1FFE7E8
:10116000029A0199D1F80C021043C1F80C02039ABB
:1011700090881168526940EA0140019901EBC2016F
:10118000C1F84002039A90899168526940EA01408F
:10119000019901EBC201C1F84402FFE7039880699D
:1011A00040B9FFE7029A0199D1F804029043C1F8CF
:1011B000040207E0029A0199D1F804021043C1F831
:1011C0000402FFE70398006940B9FFE7029A01991A
:1011D000D1F814029043C1F8140207E0029A019971
:1011E000D1F814021043C1F81402FFE70398006A13
:1011F000012808D1FFE7029A0199D1F81C02104397
:10120000C1F81C02FFE70199D1F8000220F00100AB
:10121000C1F8000200208DF8170008E00499486A20
:1012200040F48020486201208DF81700FFE79DF808
:10123000170006B07047000081B0009001B0704701
:1012400086B00490039102920193049890F82000D4
:101250008DF803009DF80300012806D0FFE79DF8F4
:101260000300022840F0E880FFE7039880B9FFE719
:1012700004980068C068800748B9FFE70499486A85
:1012800040F40010486201208DF81700DDE00FE007
:10129000049800680069800748B9FFE70499486A24
:1012A00040F40010486201208DF81700CDE0FFE700
:1012B00004980068039900EB0110D0F8B00100F029
:1012C0000400029988600298806858B9FFE7049882
:1012D0000068039900EB0110D0F8B001400D0299AD
:1012E00008600AE004980068039900EB0110D0F848
:1012F000B001C00802994860FFE7049800680399AC
:1013000000EB0110D0F8B00100F002000299C860B3
:1013100004980068039900EB0110D0F8B40100F0C4
:101320000F00082804D3FFE70299082008610BE0AA
:1013300004980068039900EB0110D0F8B40100F0A4
:101340000F0002990861FFE704980068039900EB19
:101350000110D0F8B40180B2000A029988610498A3
:101360000068039900EB0110D0F8B401000C029959
:10137000486104980068039900EB0110D0F8B801A7
:101380000199087004980068039900EB0110D0F8E7
:10139000B801000A0199487004980068039900EBAD
:1013A0000110D0F8B801000C019988700498006809
:1013B000039900EB0110D0F8B801000E0199C87034
:1013C00004980068039900EB0110D0F8BC01019962
:1013D000087104980068039900EB0110D0F8BC0173
:1013E000000A0199487104980068039900EB011004
:1013F000D0F8BC01000C0199887104980068039929
:1014000000EB0110D0F8BC01000E0199C8710398DF
:1014100038B9FFE704980168C86840F02000C86048
:1014200006E004980168086940F020000861FFE7C1
:1014300000208DF8170008E00499486A40F48020E5
:10144000486201208DF81700FFE79DF8170006B0ED
:101450007047000080B58AB0099000200890099874
:1014600000684069079009980068406806900998EC
:1014700000688068059009980068C0680490099821
:1014800000680069039009980068806902909DF8DF
:101490001C00C007002800F09480FFE79DF81400AE
:1014A000C00758B3FFE709980168012088609DF8DC
:1014B00014008007002804D5FFE7099800F00AFC13
:1014C0001BE09DF814004007002805D5FFE70898A9
:1014D00040F4006008900FE09DF814000007002819
:1014E00005D5FFE7089840F48050089003E009987C
:1014F00000F0E0FBFFE7FFE7FFE7FFE79DF81500DF
:10150000C00760B3FFE7099801684FF480708860F6
:101510009DF815008007002804D5FFE7099800F022
:10152000F1FB1BE09DF815004007002805D5FFE7FB
:10153000089840F4005008900FE09DF8150000074F
:10154000002805D5FFE7089840F48040089003E0A4
:10155000099800F0C7FBFFE7FFE7FFE7FFE79DF80B
:101560001600C00760B3FFE7099801684FF48030A8
:1015700088609DF816008007002804D5FFE70998C9
:1015800000F0D8FB1BE09DF816004007002805D5A9
:10159000FFE7089840F4004008900FE09DF816001F
:1015A0000007002805D5FFE7089840F48030089030
:1015B00003E0099800F0AEFBFFE7FFE7FFE7FFE776
:1015C000FFE79DF81C000007002810D5FFE79DF8F5
:1015D0001000C006002809D5FFE7089840F4007005
:1015E0000890099801681020C860FFE7FFE79DF8A0
:1015F0001C00400700280FD5FFE79DF810000007EA
:10160000002808D5FFE7099801680820C8600998F4
:1016100000F09EFAFFE7FFE79DF81C008007002816
:101620000BD5FFE709980068C068800720B1FFE785
:10163000099800F091FAFFE7FFE79DF81C004006CB
:10164000002810D5FFE79DF80C00C006002809D53A
:10165000FFE7089840F4806008900998016810201E
:101660000861FFE7FFE79DF81C00800600280FD502
:10167000FFE79DF80C000007002808D5FFE7099850
:10168000016808200861099800F09EFAFFE7FFE76B
:101690009DF81C00C00600280BD5FFE709980068DC
:1016A0000069800720B1FFE7099800F091FAFFE791
:1016B000FFE79DF81E00800700280FD5FFE79DF883
:1016C0001800C006002808D5FFE709980168102017
:1016D0004860099800F0A4FAFFE7FFE79DF81E00B4
:1016E000C00778B1FFE79DF818000007002808D56B
:1016F000FFE70998016808204860099800F022FB7C
:10170000FFE7FFE79DF81D000006002840F18D80EF
:10171000FFE79DF818004007002840F18180FFE7AF
:101720009DF81D00C00750B1FFE79DF80800C007F5
:1017300028B1FFE7089840F001000890FFE79DF806
:101740001D00800700280BD5FFE79DF808008007E3
:10175000002805D5FFE7089840F002000890FFE751
:101760009DF81D00400700280BD5FFE79DF80800F5
:101770004007002805D5FFE7089840F004000890CE
:10178000FFE79DF81D000007002848D5FFE79DF8FA
:10179000080010F0700F42D0FFE7029800F07000D0
:1017A00001460191102814D0FFE70198202815D098
:1017B000FFE70198302816D0FFE70198402817D09E
:1017C000FFE70198502818D0FFE70198602819D04A
:1017D0001DE0089840F00800089019E0089840F0D3
:1017E0001000089014E0089840F0200008900FE0E6
:1017F000089840F0400008900AE0089840F0800007
:10180000089005E0089840F48070089000E0FFE739
:1018100009980168886920F070008861FFE7FFE798
:101820000998016804204860FFE7089848B1FFE77D
:10183000089A0999486A104348620998FFF7FCFC26
:10184000FFE70AB080BD000080B584B00290029826
:1018500020B9FFE701208DF80F00E0E0029890F832
:10186000200020B9FFE7029800F0DEF8FFE70298B9
:101870000168086840F00100086000F0F9FF01907D
:10188000FFE7029800684068C007A8B9FFE700F0CA
:10189000EFFF0199401A0B280DD3FFE70299486A20
:1018A00040F4003048620299052081F820000120B0
:1018B0008DF80F00B3E0E4E702980168086820F0B3
:1018C0000200086000F0D4FF0190FFE70298006872
:1018D00040688007002815D5FFE700F0C9FF01998F
:1018E000401A0B280DD3FFE70299486A40F40030F4
:1018F00048620299052081F8200001208DF80F0030
:101900008DE0E3E70298007E012807D1FFE7029807
:101910000168086840F08000086006E002980168ED
:10192000086820F080000860FFE70298407E0128E8
:1019300007D1FFE702980168086840F0400008609E
:1019400006E002980168086820F040000860FFE7A0
:101950000298807E012807D1FFE702980168086895
:1019600040F02000086006E002980168086820F056
:1019700020000860FFE70298C07E012807D1FFE73A
:1019800002980168086820F01000086006E00298DC
:101990000168086840F010000860FFE70298007FC7
:1019A000012807D1FFE702980168086840F00800A5
:1019B000086006E002980168086820F008000860E6
:1019C000FFE70298407F012807D1FFE702980168EE
:1019D000086840F00400086006E0029801680868A2
:1019E00020F004000860FFE7029B19685A689868B5
:1019F000D3F80CC040EA0C00D3F810C040EA0C0049
:101A00005B691843013A1043C8610299002048629B
:101A1000029A012182F820108DF80F00FFE79DF84F
:101A20000F0004B080BD0000B0B586B0006846F677
:101A30000002C4F2000200219042CDE90411CDE978
:101A4000021101912FD046F20041C4F200018842F8
:101A50007BD140F26011C2F200010A6843F64000F7
:101A6000C4F20200531C0B6052B9002100910168BE
:101A700041F000710160016801F00071009100996E
:101A80000021009150F8101C142441F0020140F88C
:101A9000101C50F8100C132500F002000090009864
:101AA0004FF4407031E043F64000C4F20200009170
:101AB000016841F080610160016801F0806100917E
:101AC000009940F26011C2F200010A68531C0B60D9
:101AD00052B900210091016841F000710160016874
:101AE00001F00071009100990021009150F8101C44
:101AF000412441F0020140F8101C50F8100C3F2521
:101B000000F00200009000986020019002200290F6
:101B100000200390032004900920059040F200402B
:101B2000C4F2020001A900F097FC2846052100221A
:101B300000F054FF284600F047FF20460521002210
:101B400000F04CFF204600F03FFF06B0B0BD0000A3
:101B500081B0009001B0704780B584B00390002040
:101B600002900190039801A9FEF74EFD00900398A2
:101B7000006846F20041C4F20001884221D1FFE72B
:101B8000009840F20221884209D1FFE742F25C50FE
:101B9000C2F200003C3001A903F01CFD10E00098E7
:101BA00040F2032188420AD1FFE742F25C50C2F2C0
:101BB000000000F5987001A903F00CFDFFE7FFE7B6
:101BC000FFE704B080BD000081B0009001B0704715
:101BD00080B586B00590002004900390059803A975
:101BE0000191FEF711FD019B02900599029A42F2C4
:101BF0005C50C2F20000009007F0D6FE019B0098F6
:101C00000599029AF43007F0CFFE019B0599029ADC
:101C100040F27C10C2F2000004F0DEF806B080BD95
:101C200081B0009001B0704780B584B002900298F6
:101C300090F8200001282FD1FFE70299022081F8B7
:101C4000200002980168086820F00100086000F098
:101C50000FFE0190FFE7029800684068C007A8B136
:101C6000FFE700F005FE0199401A0B280DD3FFE7AE
:101C70000299486A40F4003048620299052081F8D0
:101C8000200001208DF80F000FE0E4E7029900200A
:101C900048628DF80F0008E00299486A40F400207D
:101CA000486201208DF80F00FFE79DF80F0004B097
:101CB00080BD000080B582B0019001980221FEF73E
:101CC00083FD20B1FFE70198FEF7C4FCFFE702B0F7
:101CD00080BD000080B582B001900198FEF7BAFC8B
:101CE00002B080BD80B582B0019001980221FEF75C
:101CF0006BFD20B1FFE70198FEF7ACFCFFE702B0F7
:101D000080BD000080B582B001900198FEF7A2FC72
:101D100002B080BD80B582B0019001980221FEF72B
:101D200053FD20B1FFE70198FEF794FCFFE702B0F6
:101D300080BD000080B582B001900198FEF78AFC5A
:101D400002B080BD81B0009001B0704780B584B012
:101D500002900298806D019000F08AFD0090029838
:101D600090F8350002280DD0FFE7029980204865E1
:101D7000FFE70299002081F83400FFE701208DF889
:101D80000F0055E002980168086820F0160008600E
:101D900002980168486920F0800048610298006C50
:101DA00020B9FFE70298806C38B1FFE7029801681C
:101DB000086820F008000860FFE7029801680868DA
:101DC00020F001000860FFE7029800680068C00783
:101DD000C8B1FFE700F04CFD0099401A062811D366
:101DE000FFE70299202048650299032081F8350019
:101DF000FFE70299002081F83400FFE703208DF807
:101E00000F0015E0E0E70298C16D3F20884001997E
:101E100088600299012081F83500FFE702990020CF
:101E200081F83400FFE7FFE700208DF80F00FFE79F
:101E30009DF80F0004B080BD82B00090009890F82B
:101E40003500022807D0FFE700998020486501206F
:101E50008DF807000EE00099052081F83500009804
:101E60000168086820F001000860FFE700208DF895
:101E70000700FFE79DF8070002B0704780B586B005
:101E800005900020039040F21C00C2F200000068A0
:101E900048F2B511C1F64E31A0FB0110800A029044
:101EA0000598806D01900198006804900498059948
:101EB000C96DC840000700281AD5FFE705980068DB
:101EC00000684007002812D5FFE7059801680868F8
:101ED00020F0040008600598C16D08208840019931
:101EE00088600599486D40F001004865FFE7FFE70D
:101EF00004980599C96DC840C007A0B1FFE70598CF
:101F000000684069000600280CD5FFE70598C16D00
:101F100001208840019988600599486D40F00200D1
:101F20004865FFE7FFE704980599C96DC840400779
:101F3000002814D5FFE7059800680068800700288E
:101F40000CD5FFE70598C16D042088400199886091
:101F50000599486D40F004004865FFE7FFE70498E5
:101F60000599C96DC840C006002847D5FFE7059808
:101F700000680068000700283FD5FFE70598C16D9D
:101F80001020884001998860059800680068400327
:101F900000281AD5FFE705980068006800030028AC
:101FA00009D4FFE70598006C20B1FFE70598016CA4
:101FB0008847FFE708E00598806C20B1FFE70598A7
:101FC000816C8847FFE7FFE716E005980068006826
:101FD000C005002807D4FFE705980168086820F0CD
:101FE00008000860FFE70598006C20B1FFE705983E
:101FF000016C8847FFE7FFE7FFE7FFE704980599D3
:10200000C96DC8408006002840F18D80FFE7059823
:1020100000680068C006002840F18480FFE705984A
:10202000C16D2020884001998860059890F835009E
:10203000052834D1FFE705980168086820F01600EC
:10204000086005980168486920F08000486105989B
:10205000006C20B9FFE70598806C38B1FFE7059860
:102060000168086820F008000860FFE70598C16D66
:102070003F208840019988600599012081F835004A
:10208000FFE70599002081F83400FFE70598006D0F
:1020900020B1FFE70598016D8847FFE77BE00598D1
:1020A00000680068400300281AD5FFE7059800681B
:1020B00000680003002809D4FFE70598406C20B1B0
:1020C000FFE70598416C8847FFE708E00598C06B7B
:1020D00020B1FFE70598C16B8847FFE7FFE720E0E5
:1020E000059800680068C005002811D4FFE705982E
:1020F0000168086820F0100008600599012081F847
:102100003500FFE70599002081F83400FFE7FFE77D
:102110000598C06B20B1FFE70598C16B8847FFE7C2
:10212000FFE7FFE7FFE70598406DA0B3FFE70598DD
:10213000406DC00730B3FFE70599052081F83500F1
:1021400005980168086820F001000860FFE703981F
:10215000013003900299884201D9FFE707E0FFE7C9
:10216000059800680068C0070028F0D1FFE70599CE
:10217000012081F83500FFE70599002081F834003F
:10218000FFE7FFE70598C06C20B1FFE70598C16C39
:102190008847FFE7FFE706B080BD000080B586B046
:1021A00004900020039000F063FB0290049820B993
:1021B000FFE701208DF81700A3E00498406A08B1FA
:1021C000FFE7FFE70499022081F83500FFE7049953
:1021D000002081F83400FFE704980168086820F0C7
:1021E00001000860FFE7049800680068C00790B12C
:1021F000FFE700F03DFB0299401A06280AD3FFE7EB
:102200000499202048650499032081F835008DF851
:10221000170076E0E7E704980068006803900398E9
:1022200048F23F01CFF21001084003900499009159
:102230004868D1F808C0CB680A6940EA0C00184326
:1022400010434A6910438A691043CA691043096AF6
:1022500001430398084303900498406A042808D176
:10226000FFE70499C86A096B014303980843039088
:10227000FFE70398049909680860049800684069BA
:102280000390039820F0070003900498416A039894
:10229000084303900498406A04281AD1FFE7049881
:1022A000816A0398084303900498C06A80B1FFE7ED
:1022B0000498FEF7A5FC50B1FFE70499402048655B
:1022C0000499012081F835008DF8170019E0FFE727
:1022D000FFE703980499096848610498FEF764FCD5
:1022E00001900498C16D3F2088400199886004994D
:1022F00000204865049A012182F835108DF81700F6
:10230000FFE79DF8170006B080BD000080B588B0DB
:10231000069005910492039300208DF80B00069817
:10232000806D0190FFE7069890F83400012804D1F1
:10233000FFE702208DF81F0045E00699012081F893
:102340003400FFE7FFE7069890F8350001282BD10D
:10235000FFE70699022081F83500069900204865BC
:1023600006980599049A039BFEF7C2FC0698C16D76
:102370003F2088400199886006980168086840F00D
:10238000160008600698006C38B1FFE706980168EF
:10239000086840F008000860FFE7069801680868D0
:1023A00040F00100086009E0FFE70699002081F88D
:1023B0003400FFE702208DF80B00FFE79DF80B00CB
:1023C0008DF81F00FFE79DF81F0008B080BD0000DA
:1023D00080B584B0039000F04BFA0290039801900E
:1023E0000198013048B1FFE740F2EE00C2F2000070
:1023F0000178019808440190FFE7FFE700F038FA00
:102400000299401A0199884201D2FFE7F6E704B029
:1024100080BD000081B0ADF8020001B0704700003F
:1024200080B582B0ADF8060043F61440C4F2010056
:102430000068BDF8061008420CD0FFE7BDF80600A2
:1024400043F61441C4F201010860BDF80600FFF72D
:10245000E1FFFFE702B080BD8EB00D900C9100202F
:102460000A90099008900B90FFE70B980F2800F254
:10247000CC81FFE70B99012088400A900C980068F6
:102480000A990840099009980A99884240F0B88151
:10249000FFE70C98406800F00300012807D0FFE731
:1024A0000C98406800F0030002282FD1FFE70D9838
:1024B000806808900B984100032000FA01F1089809
:1024C000884308900C98C0680B99490000FA01F104
:1024D00008980843089008980D9988600D984068FE
:1024E00008900B99012000FA01F1089888430890A0
:1024F0000C984068C0F300100B9900FA01F108989D
:102500000843089008980D994860FFE70C984068C8
:1025100000F00300032818D0FFE70D98C06808906A
:102520000B984100032000FA01F1089888430890B5
:102530000C9880680B99490000FA01F1089808434B
:10254000089008980D99C860FFE70C98406800F063
:102550000300022826D1FFE70D980B996FF00302C4
:1025600002EA51010844006A08900B9800F0070045
:1025700081000F2000FA01F10898884308900C9818
:1025800000690B9901F00701890000FA01F1089830
:102590000843089008980D990B9B02EA53021144D6
:1025A0000862FFE70D98006808900B98410003202F
:1025B00000FA01F10898884308900C98406800F0F0
:1025C00003000B99490000FA01F1089808430890AC
:1025D00008980D9908600C9880798007002800F011
:1025E0000E81FFE7FFE70020079043F64400C4F2A6
:1025F0000200016841F480410160006800F48040FD
:1026000007900798FFE70B9820F0030043F60801B6
:10261000C4F20101405808900B9800F003008100BB
:102620000F2000FA01F10898884308900D980021C6
:10263000C4F20201884203D1FFE7002006905EE069
:102640000D9840F20041C4F20201884203D1FFE735
:102650000120059050E00D9840F60001C4F20201FF
:10266000884203D1FFE70220049042E00D9840F633
:102670000041C4F20201884203D1FFE70320039026
:1026800034E00D9841F20001C4F20201884203D106
:10269000FFE70420029026E00D9841F20041C4F2C9
:1026A0000201884203D1FFE70520019018E00D9850
:1026B00041F60001C4F20201884203D1FFE706207F
:1026C00000900AE00D9941F60042C4F2020208208F
:1026D000914208BF07200090FFE700980190FFE7B4
:1026E00001980290FFE702980390FFE70398049097
:1026F000FFE704980590FFE705980690FFE7069826
:10270000C0B20B9901F00301890000FA01F10898A9
:102710000843089008980B9921F0030143F608023A
:10272000C4F20102885043F60840C4F20100006878
:10273000089009990898884308900C988079C006F9
:10274000002805D5FFE70999089808430890FFE796
:10275000089843F60841C4F20101086043F60C40B2
:10276000C4F201000068089009990898884308900D
:102770000C9880798006002805D5FFE7099908980C
:1027800008430890FFE7089843F60C41C4F20101A2
:10279000086043F60440C4F20100006808900999FB
:1027A0000898884308900C9880798007002805D500
:1027B000FFE70999089808430890FFE7089843F64F
:1027C0000441C4F20101086043F60040C4F2010074
:1027D0000068089009990898884308900C988079B7
:1027E000C00728B1FFE70999089808430890FFE758
:1027F000089843F60041C4F201010860FFE7FFE7D3
:10280000FFE70B9801300B902FE60EB070470000E9
:1028100082B00190ADF8021001980069BDF8021075
:10282000084204D0FFE701208DF8010003E00020FA
:102830008DF80100FFE79DF8010002B0704700002D
:1028400082B00190ADF802108DF801209DF80100D2
:1028500028B1FFE7BDF802000199886105E0BDF8E5
:102860000200000401998861FFE702B07047000090
:102870004CF27870C2F200000068704740F2EE003F
:10288000C2F2000002784CF27871C2F200010868CE
:10289000104408607047000080B543F60041C4F260
:1028A0000201086840F400700860086840F4806025
:1028B0000860086840F480700860032000F0A8F801
:1028C0000F2000F005F800F05BF8002080BD00004C
:1028D00070B586B0002543F640010195C4F20201AF
:1028E0000A68044642F480720A60096801A801F48B
:1028F000807101910199694601F0D6FA049E002E7B
:1029000018BF012601F000FB4DF68361B040C4F210
:102910001B31A0FB01014FF0FF3000EB914142F26F
:10292000C42042F20002C2F20000C4F2000240F2EF
:10293000E733C0E90021C0E902530561856101F078
:10294000E3FE0546C0B942F2C420C2F2000001F025
:102950002DFF054680B92D2000F036F80F2C0AD83F
:102960002D202146002200F039F840F2F000C2F29A
:102970000000046000E00125284606B070BD00009C
:1029800080B582B0002043F640010190C4F20201FC
:102990004A6842F480424A604A6802F480420192E6
:1029A000019A00900868002240F080500860086892
:1029B0000F2100F08050009000986FF0010000F0AF
:1029C0000DF802B080BD000080B582B08DF8070020
:1029D0009DF9070007F092FA02B080BD80B586B07D
:1029E0008DF81700049103920020029007F09EFAE0
:1029F00002909DF91700019002980499039A03F040
:102A00004DFA0146019807F099FA06B080BD000022
:102A100080B582B00190019807F0B2FA02B080BD93
:102A200082B001908DF8031002B0704782B001901F
:102A3000ADF80210BDF80200019909684862002053
:102A400002B0704784B003908DF80B10ADF80820E9
:102A500003980068406A00909DF80B0048B9FFE7B2
:102A6000BDF80810009840EA01400399096888629F
:102A700033E003980068816A009800EB11400090F1
:102A800000208DF80700FFE79DF807009DF80B1068
:102A90000139884213D2FFE7039800689DF80710B8
:102AA00000EB8100D0F80411009800EB1140009079
:102AB000FFE79DF8070001308DF80700E4E7BDF857
:102AC0000810009840EA0140039909689DF80B201E
:102AD00001EB8201C1F80001FFE7002004B070475C
:102AE00080B5D0F8E00405F06FF980BD80B501EB4A
:102AF000C102D0F8E03400EB8200026A184605F00B
:102B0000C7F880BD80B501EBC102D0F8E03400EB1E
:102B10008200D0F86022184605F014F980BD00004C
:102B200080B5D0F8E00405F051F980BD80B584B0DF
:102B300003908DF80B109DF80B00000600280CD5B3
:102B4000FFE703989DF80B1001F00F0101EBC101A5
:102B500000EB8100143001900CE003989DF80B10FD
:102B600001F00F0101EBC10100EB810000F51570D0
:102B70000190FFE703980068019906F0D7FA8DF8F5
:102B80000A009DF80A0004B080BD000080B584B042
:102B900002908DF807109DF80700000600280FD559
:102BA000FFE702989DF8071001F00F0101EBC1014A
:102BB00000EB8100143000900099012048700FE074
:102BC00002989DF8071001F00F0101EBC10100EB25
:102BD000810000F515700090009900204870FFE713
:102BE0009DF8070000F00F0000990870FFE70298B9
:102BF00090F89404012804D1FFE702208DF80F001B
:102C000014E00299012081F89404FFE7FFE702989D
:102C10000068009905F072FDFFE70299002081F835
:102C20009404FFE700208DF80F00FFE79DF80F00E8
:102C300004B080BD80B584B002908DF807109DF877
:102C4000070000F00F0002990979884204D9FFE7D4
:102C500001208DF80F004DE09DF8070000060028C8
:102C60000FD5FFE702989DF8071001F00F0101EB67
:102C7000C10100EB810014300090009901204870E0
:102C80000FE002989DF8071001F00F0101EBC10160
:102C900000EB810000F5157000900099002048704D
:102CA000FFE70099002088709DF8070000F00F00F2
:102CB00000990870FFE7029890F89404012804D165
:102CC000FFE702208DF80F0014E00299012081F83F
:102CD0009404FFE7FFE702980068009905F086FF7B
:102CE000FFE70299002081F89404FFE700208DF8A7
:102CF0000F00FFE79DF80F0004B080BD82B0019087
:102D00008DF8031001989DF8031001F00F0101EBFD
:102D1000C10100EB8100D0F8680202B070470000EA
:102D200080B586B004908DF80F10ADF80C208DF8AA
:102D30000B3000208DF80A009DF80F0000060028D7
:102D40000FD5FFE704989DF80F1001F00F0101EB7C
:102D5000C10100EB810014300190019901204870FD
:102D60000FE004989DF80F1001F00F0101EBC10175
:102D700000EB810000F5157001900199002048706A
:102D8000FFE79DF80F0000F00F0001990870BDF8F3
:102D90000C006FF3DF20019988609DF80B0001990A
:102DA00008710198407820B1FFE7019908784883BD
:102DB000FFE79DF80B00022804D1FFE701990020EE
:102DC0004871FFE7FFE7049890F89404012804D1C4
:102DD000FFE702208DF8170015E00499012081F823
:102DE0009404FFE7FFE704980068019905F050FBA1
:102DF000FFE70499002081F89404FFE79DF80A009A
:102E00008DF81700FFE79DF8170006B080BD0000A1
:102E100080B586B005908DF8131003920293059843
:102E20009DF8131001F00F0101EBC10100EB8100CF
:102E300000F51570019003980199C86002980199F6
:102E40000861019900204861019948709DF81300BC
:102E500000F00F000199087005988079012804D1CD
:102E6000FFE703980199C861FFE7059A1068019987
:102E7000927905F05FFF002006B080BD80B584B078
:102E800002908DF807109DF8070000F00F000299DE
:102E90000979884204D9FFE701208DF80F0058E036
:102EA0009DF80700000600280FD5FFE702989DF85F
:102EB000071001F00F0101EBC10100EB810014309C
:102EC00000900099012048700DE002989DF80710CD
:102ED00001EBC10100EB810000F515700090009935
:102EE00000204870FFE70099012088709DF80700D6
:102EF00000F00F0000990870FFE7029890F8940422
:102F0000012804D1FFE702208DF80F0021E002998B
:102F1000012081F89404FFE7FFE702980068009918
:102F200005F0B4FE9DF80700000740B9FFE7029ADC
:102F30001068917902F29C4205F008FEFFE7FFE776
:102F40000299002081F89404FFE700208DF80F001B
:102F5000FFE79DF80F0004B080BD000080B586B08B
:102F600005908DF813100392029305989DF81310A5
:102F700001F00F0101EBC10100EB81001430019061
:102F800003980199C860029801990861019900208D
:102F900048610199012048709DF8130000F00F006E
:102FA0000199087005988079012804D1FFE70398FA
:102FB0000199C861FFE7059A10680199927905F0B7
:102FC000B9FE002006B080BD80B58CB00B900B9888
:102FD00000680A900A9809900B98006806F0DCF9DE
:102FE000002840F00C84FFE70B98006806F040FAD8
:102FF00010B9FFE700F003BC0998D0F80808C0F347
:103000000D200B99C1F8D4040B98006806F030FA33
:103010008007002807D5FFE70B980168486900F092
:1030200002004861FFE70B98006806F021FAC0062D
:10303000002862D5FFE70B980168886920F010002E
:1030400088610A98006A02900B98029901F00F01BA
:1030500001EBC10100EB810000F5157008900298AA
:1030600000F4F0110220B0EB514F23D1FFE7BDF87F
:10307000080047F6F07108421BD0FFE70A9808994C
:10308000C968029AC2F30A1206F000FA029847F6DB
:10309000F07100EA0103089AD06800EB1310D060C9
:1030A000029800EA01020899486900EB1210486191
:1030B000FFE71BE0029800F4F0110620B0EB514F3F
:1030C00012D1FFE70A980B9901F29C41082206F001
:1030D000DDF9029847F6F07100EA010208994869A3
:1030E00000EB1210486100E0FFE7FFE70B98016872
:1030F000886940F010008861FFE70B98006806F0CF
:10310000B7F90003002840F1A680FFE700200490F3
:103110000B98006806F05AF90690FFE70698002819
:1031200000F09880FFE79DF81800C007002800F025
:103130008A80FFE70B9800689DF8101006F080F970
:1031400005909DF81400C00760B1FFE70998049945
:1031500000EB41110120C1F8080B0B98049902F013
:1031600021FFFFE79DF81400000700280CD5FFE7BA
:103170000998049900EB41110820C1F8080B0B983D
:10318000049902F0C9FEFFE79DF81400C00600286C
:1031900008D5FFE70998049900EB41111020C1F808
:1031A000080BFFE79DF81400800700282DD5FFE7E6
:1031B0000A9840690006002808D5FFE70999D1F868
:1031C000040840F48060C1F80408FFE70B980499F4
:1031D00001EBC10100EB810000F515700890089823
:1031E000C078012809D1FFE708990020C8700B9822
:1031F0009DF8101000F00CFBFFE70998049900EB14
:1032000041110220C1F8080BFFE79DF81400800669
:10321000002808D5FFE70998049900EB4111202008
:10322000C1F8080BFFE79DF815008006002809D5B6
:10323000FFE70998049900EB41114FF40050C1F8E1
:10324000080BFFE7FFE70498013004900698400858
:10325000069063E7FFE70B98006806F009F9400362
:10326000002840F1C680FFE70B98006806F09CF844
:10327000069000200490FFE70698002800F0B88030
:10328000FFE79DF81800C007002800F0AA80FFE7BC
:103290000B9800689DF8101006F0AAF805909DF8AC
:1032A0001400C00700283ED0FFE7049800F00F018B
:1032B000012000FA01F10391039B099AD2F8341816
:1032C0009943C2F834180999049A01EB4211C1F8E4
:1032D00008090B98807901281FD1FFE70B98049902
:1032E00001EBC10100EB8101CA69086A1044086260
:1032F000049888B9FFE70B98049901EBC10100EB32
:103300008100406A40B9FFE70B99086801F29C42CE
:10331000012105F01BFCFFE7FFE70B989DF810105B
:10332000FFF7E4FBFFE79DF814000007002808D52D
:10333000FFE70998049900EB41110820C1F808093A
:10334000FFE79DF81400C006002808D5FFE709989C
:10335000049900EB41111020C1F80809FFE79DF81E
:1033600014004006002808D5FFE70998049900EBEF
:1033700041114020C1F80809FFE79DF814008007BB
:10338000002822D5FFE70A98049905F0A1FF0B98C1
:10339000049901EBC10100EB8100143008900898FA
:1033A000C078012809D1FFE708990020C8700B9860
:1033B0009DF8101000F026FAFFE70998049900EB39
:1033C00041110220C1F80809FFE79DF8140000062A
:1033D000002805D5FFE70B98049902F0C7FEFFE728
:1033E000FFE704980130049006984008069043E7F0
:1033F000FFE70B98006806F03BF8C00F00B3FFE74B
:103400000999D1F8040820F00100C1F804080B98CC
:1034100090F8CC04012808D1FFE70B98002180F830
:10342000CC140B98FFF7FCFA03E00B9800F06EFB4E
:10343000FFE70B980168486900F000404861FFE72A
:103440000B98006806F014F80005002811D5FFE776
:103450000998D0F80808C00720B1FFE70B9800F0E2
:10346000D7FBFFE70B980168486900F400604861EA
:10347000FFE70B98006805F0FBFFC004002840F14F
:103480008680FFE70999D1F8040820F00100C1F80F
:1034900004080B980068102105F01AFF002007901F
:1034A000FFE707980B990979884231D2FFE709981D
:1034B000079900EB41114FF67F30C1F808090999CF
:1034C000079A01EB4212D2F8001921F40011C2F858
:1034D00000190999079A01EB4211C1F8080B0998E4
:1034E000079900EB4111D1F8000B20F40010C1F84E
:1034F000000B0998079900EB4111D1F8000B40F03F
:103500000060C1F8000BFFE7079801300790C8E79B
:103510000999D1F81C0840F00110C1F81C080B985B
:10352000C07B78B1FFE70999D1F8840840F00B001F
:10353000C1F884080999D1F8440840F00B00C1F89B
:1035400044080FE00999D1F8140842F22B02104305
:10355000C1F814080999D1F8100840F00B00C1F81F
:103560001008FFE70999D1F8000820F4FE60C1F8BF
:1035700000080B9A1068917902F29C4205F0E6FA75
:103580000B980168486900F480504861FFE70B9888
:10359000006805F06DFF800400281FD5FFE70B9839
:1035A000006804F0E5FF0B98006805F0CFFE0B996A
:1035B000C8710B980068019000F0A0FC01460198CA
:1035C0000B9AD27906F05AF80B9800F08DFA0B9806
:1035D0000168486900F400504861FFE70B980068F3
:1035E00005F046FF000700280AD5FFE70B9800F01A
:1035F00093FA0B980168486900F008004861FFE7FA
:103600000B98006805F034FF0006002825D5FFE779
:103610000A99886920F08000886101200490FFE702
:1036200004980B990979884216D2FFE70B98049900
:1036300001EBC10100EB810090F85702012806D18F
:10364000FFE70B989DF81010FFF770FAFFE7FFE710
:10365000049801300490E3E7FFE70B98006805F059
:1036600007FFC00200283CD5FFE701200490FFE7D8
:1036700004980B99097988422CD2FFE7099804999C
:1036800000EB4110D0F8000902900B98049901EB6F
:10369000C10100EB8100007E012816D1FFE79DF8F3
:1036A0000B000006002810D5FFE70B98049901EBEA
:1036B000C10100EB81010120C8750B989DF8101025
:1036C00041F08001FFF732FAFFE7FFE7049801308D
:1036D0000490CDE70B980168486900F480104861B8
:1036E000FFE70B98006805F0C3FE8002002856D55E
:1036F000FFE701200490FFE704980B9909798842BD
:1037000046D2FFE70998049900EB4110D0F8000B6E
:1037100002900B98049901EBC10100EB810090F835
:10372000580201282FD1FFE79DF80B000006002862
:1037300029D5FFE7029800F480310B98D0F8D40423
:1037400000F00100B0EB114F1DD1FFE70B98049979
:1037500001EBC10100EB8101012081F857020A99B8
:10376000886940F0800088610A9840690006002856
:1037700008D4FFE70999D1F8040840F40070C1F8B3
:10378000040805E0FFE7FFE7049801300490B3E781
:103790000B980168486900F400104861FFE70B9836
:1037A000006805F065FE400000280AD5FFE70B9889
:1037B000FFF796F90B980168486900F0804048616E
:1037C000FFE70B98006805F053FE4007002815D569
:1037D000FFE70B980068406802909DF808004007DA
:1037E000002804D5FFE70B98FFF79AF9FFE7029A44
:1037F0000B980168486810434860FFE7FFE70CB08A
:1038000080BD000080B5D0F8E00404F03BFB80BD33
:1038100080B5D0F8E00404F049FB80BD80B58EB0DF
:103820000C900C9820B9FFE701208DF8370012E1C9
:103830000C9800680B900C9890F8950440B9FFE73D
:103840000C99002081F894040C9800F009F9FFE726
:103850000C99032081F895040B98B0F1A04F04D186
:10386000FFE70C9900208871FFE70C98006805F0CD
:1038700063F90C9B1868197C8DF8241059689A68B4
:10388000DB680893079206910699079A089BDDF872
:1038900024C0EE46CEF800C004F080FE40B1FFE741
:1038A0000C99022081F8950401208DF83700D2E0B0
:1038B0000C980068002105F043FE40B1FFE70C9929
:1038C000022081F8950401208DF83700C3E0002024
:1038D0008DF82B00FFE79DF82B000C9909798842A1
:1038E00041DAFFE70C989DF82B1001EBC10100EBCA
:1038F0008101012048759DF82B000C9900EBC00256
:1039000001EB820108759DF82B000C9900EBC002B9
:1039100001EB8201C8850C989DF82B1001EBC101C9
:1039200000EB8101002008760C999DF82B2002EB1A
:10393000C20201EB8201C8610C999DF82B2002EBB9
:10394000C20201EB820108620C999DF82B2002EB68
:10395000C20201EB82014862FFE79DF82B000130B3
:103960008DF82B00B7E700208DF82B00FFE79DF8BE
:103970002B000C99097988423EDAFFE70C989DF8F4
:103980002B1001EBC10100EB8101002081F85502F1
:103990009DF82B100C9A01EBC10302EB830282F815
:1039A00054120C999DF82B2002EBC20201EB82010C
:1039B00081F858020C999DF82B2002EBC20201EB12
:1039C0008201C1F85C020C999DF82B2002EBC20227
:1039D00001EB8201C1F860020C999DF82B2002EBEB
:1039E000C20201EB8201C1F86402FFE79DF82B00DF
:1039F00001308DF82B00BAE70C9B1868197C8DF804
:103A0000141059689A68DB68049303920291029932
:103A1000039A049BDDF814C0EE46CEF800C004F013
:103A20003DFF40B1FFE70C99022081F89504012089
:103A30008DF837000FE00C990020019048740C9924
:103A4000012081F895040C98006804F011FF01989A
:103A50008DF83700FFE79DF837000EB080BD0000FD
:103A6000B0B586B000680024B0F1A04F0594CDE950
:103A700003440294019401D006B0B0BD43F6300572
:103A80000094C4F20205286801A940F001002860F2
:103A9000286800F00100009000984FF4C050019099
:103AA0000220CDE90204032004900A2005900020A2
:103AB000C4F20200FEF7D0FC6868052140F08000E7
:103AC000686000946869002240F480406861686919
:103AD00000F48040009000984320FEF77FFF4320D1
:103AE000FEF772FF06B0B0BD10B5C179044621B132
:103AF000022918BFFDF730F90121D4F8E00404F0E1
:103B000049FAD4F8E00404F0F9F910BD80B5D0F812
:103B1000E00404F027FA80BD80B5D0F8E00404F09A
:103B20002BFA80BD80B584B002908DF80710FFE7B6
:103B3000029890F89404012804D1FFE702208DF840
:103B40000F0019E00299012081F89404FFE7FFE7D4
:103B50009DF8070002994874029800689DF80710C4
:103B600005F05EFDFFE70299002081F89404FFE76D
:103B700000208DF80F00FFE79DF80F0004B080BD16
:103B800080B5D0F8E02400F29C41104604F00EFA13
:103B900080BD000080B584B002900298006801905A
:103BA000FFE7029890F89404012804D1FFE702206F
:103BB0008DF80F0028E00299012081F89404FFE7B6
:103BC000FFE70198C068400600280BD5FFE7029880
:103BD000407B012806D1FFE70199886B40F48030D3
:103BE0008863FFE70298006805F02EFB02980068E2
:103BF00004F028FEFFE70299002081F89404FFE713
:103C000000208DF80F00FFE79DF80F0004B080BD85
:103C100010B50446D0F8E00404F004FA2068D0F8A7
:103C2000001E41F00101C0F8001EE07A002808BF24
:103C300010BD4EF61050CEF20000016841F00601B2
:103C4000016010BD80B584B002900191029820B946
:103C5000FFE701208DF80F0021E1019843F60041B4
:103C6000C4F20201096801F00701884212D9FFE796
:103C7000019943F60040C4F202000170006800F0B0
:103C800007000199884204D0FFE701208DF80F005A
:103C900005E1FFE702980078800700282AD5FFE7B2
:103CA000029800784007002809D5FFE743F608018D
:103CB000C4F20201086840F4E0500860FFE702988F
:103CC00000780007002809D5FFE743F60801C4F291
:103CD0000201086840F460400860FFE743F608010D
:103CE000C4F20201086820F0F000029A92681043C2
:103CF0000860FFE702980078C00700286ED0FFE751
:103D000002984068012811D1FFE743F60000C4F291
:103D10000200006800F400310020B0EB514F04D1E4
:103D2000FFE701208DF80F00B9E02CE00298406811
:103D3000022805D0FFE702984068032811D1FFE769
:103D400043F60000C4F20200006800F00071002099
:103D5000B0EB516F04D1FFE701208DF80F009EE01A
:103D600010E043F60000C4F20200006800F0020117
:103D70000020B0EB510F04D1FFE701208DF80F00B8
:103D80008DE0FFE7FFE743F60801C4F2020108688F
:103D900020F00300029A526810430860FEF768FDA5
:103DA0000090FFE743F60800C4F20200006800F04C
:103DB0000C0002994968B0EB810F0ED0FFE7FEF7C7
:103DC00057FD0099401A41F28931884204D3FFE738
:103DD00003208DF80F0062E0E4E7FFE7019843F667
:103DE0000041C4F20201096801F00701884212D2C1
:103DF000FFE7019943F60040C4F202000170006839
:103E000000F007000199884204D0FFE701208DF8F7
:103E10000F0044E0FFE702980078400700280CD527
:103E2000FFE743F60801C4F20201086820F4E050FD
:103E3000029AD26810430860FFE7029800780007F2
:103E400000280DD5FFE743F60801C4F20201086817
:103E500020F46040029A126940EAC2000860FFE75D
:103E600000F076F843F60801C4F202010968C9B20D
:103E70000A094EF63441C0F60001895CC84040F2A0
:103E80001C01C2F20001086040F2F000C2F2000022
:103E90000068FEF71DFD00208DF80F00FFE79DF87C
:103EA0000F0004B080BD000082B001900091019924
:103EB0000F20086043F60800C4F20200016801F018
:103EC0000301019A5160016801F0F001019A9160CB
:103ED000016801F4E051019AD160006800F460408B
:103EE000C0080199086143F60040C4F2020000686E
:103EF00000F007000099086002B0704740F21C0013
:103F0000C2F200000068704780B5FFF7F7FF43F684
:103F10000801C4F202010968C1F382224EF644414D
:103F2000C0F60001895CC84080BD000080B5FFF785
:103F3000E5FF43F60801C4F20201096889B24A0BA1
:103F40004EF64441C0F60001895CC84080BD0000C7
:103F500080B586B00020059004900390029043F64F
:103F60000800C4F20200006800F00C000146019154
:103F700040B1FFE7019804280AD0FFE7019808281C
:103F80000CD04FE042F20040C0F2F40002904FE04B
:103F900047F64000C0F27D10029049E043F604006D
:103FA000C4F20200016801F03F010591006840027F
:103FB000002813D5FFE743F60400C4F202000068AE
:103FC000C0F3881047F64001C0F27D11A0FB01014B
:103FD000059A0023FCF748F9049012E043F6040028
:103FE000C4F202000068C0F3881042F20041C0F23F
:103FF000F401A0FB0101059A0023FCF735F90490B8
:10400000FFE743F60400C4F20200006800F4403108
:10401000022000EBD130039004980399B0FBF1F03B
:10402000029005E042F20040C0F2F4000290FFE787
:10403000029806B080BD000080B586B00490049858
:1040400020B9FFE701208DF8170050E304980078AD
:10405000C007002800F0A580FFE743F60800C4F27F
:104060000200006800F00C00042813D0FFE743F6BC
:104070000800C4F20200006800F00C0008281ED1FD
:10408000FFE743F60400C4F2020000684002002883
:1040900015D5FFE743F60000C4F20200006800F403
:1040A00000310020B0EB514F08D0FFE70498406882
:1040B00020B9FFE701208DF8170018E370E0FFE753
:1040C00004984068B0F5803F09D1FFE743F600014E
:1040D000C4F20201086840F48030086020E00498CF
:1040E0004068B0F5A02F0DD1FFE743F60001C4F200
:1040F0000201086840F480200860086840F48030BD
:1041000008600CE043F60001C4F20201086820F4E4
:1041100080300860086820F480200860FFE7FFE72F
:10412000FFE704984068E8B1FFE7FEF7A1FB0390C2
:10413000FFE743F60000C4F20200006800F400311B
:104140000020B0EB514F0CD1FFE7FEF791FB039934
:10415000401A652804D3FFE703208DF81700C6E254
:10416000E7E71CE0FEF784FB0390FFE743F600005F
:10417000C4F20200006800F400310020B0EB514F9F
:104180000CD0FFE7FEF774FB0399401A652804D3AF
:10419000FFE703208DF81700A9E2E7E7FFE7FFE755
:1041A000FFE7049800788007002840F19680FFE739
:1041B00043F60800C4F20200006810F00C0F13D0A0
:1041C000FFE743F60800C4F20200006800F00C00AC
:1041D00008282CD1FFE743F60400C4F2020000686F
:1041E0004002002823D4FFE743F60000C4F2020097
:1041F000006800F002010020B0EB510F09D0FFE78A
:104200000498C068012804D0FFE701208DF817004A
:104210006DE243F60001C4F20201086820F0F800E4
:10422000049A126940EAC2000860FFE754E004986B
:10423000C06870B3FFE70021C4F247210120086085
:10424000FEF716FB0390FFE743F60000C4F20200FE
:10425000006800F002010020B0EB510F0CD1FFE725
:10426000FEF706FB0399401A032804D3FFE7032057
:104270008DF817003BE2E7E743F60001C4F20201C4
:10428000086820F0F800049A126940EAC200086049
:1042900021E00021C4F2472100200860FEF7E8FA7F
:1042A0000390FFE743F60000C4F20200006800F04C
:1042B00002010020B0EB510F0CD0FFE7FEF7D8FA57
:1042C0000399401A032804D3FFE703208DF8170051
:1042D0000DE2E7E7FFE7FFE7FFE704980078000754
:1042E00000284BD5FFE70498406918B3FFE740F674
:1042F0008061C4F2472101200860FEF7B9FA0390FB
:10430000FFE743F67400C4F20200006800F0020107
:104310000020B0EB510F0CD1FFE7FEF7A9FA03998B
:10432000401A032804D3FFE703208DF81700DEE1CD
:10433000E7E722E040F68061C4F2472100200860F0
:10434000FEF796FA0390FFE743F67400C4F202000A
:10435000006800F002010020B0EB510F0CD0FFE725
:10436000FEF786FA0399401A032804D3FFE70320D7
:104370008DF81700BBE1E7E7FFE7FFE70498007857
:104380004007002840F1CE80FFE700208DF80700AD
:1043900043F64000C4F202000068C000002815D4B3
:1043A000FFE7FFE70020009043F64000C4F2020060
:1043B000016841F080510160006800F08050009079
:1043C0000098FFE701208DF80700FFE747F20000A3
:1043D000C4F200000068C005002822D4FFE747F2BD
:1043E0000001C4F20001086840F480700860FEF724
:1043F0003FFA0390FFE747F20000C4F200000068B4
:10440000C00500280CD4FFE7FEF732FA0399401AE2
:10441000032804D3FFE703208DF8170067E1EAE7DC
:10442000FFE7FFE704988068012809D1FFE743F61A
:104430007001C4F20201086840F0010008601FE04A
:104440000498806805280DD1FFE743F67001C4F297
:104450000201086840F004000860086840F00100AC
:1044600008600CE043F67001C4F20201086820F015
:1044700001000860086820F004000860FFE7FFE71B
:10448000FFE704988068F8B1FFE7FEF7F1F90390C1
:10449000FFE743F67000C4F20200006800F002017A
:1044A0000020B0EB510F0ED1FFE7FEF7E1F90399C1
:1044B000401A41F28931884204D3FFE703208DF886
:1044C000170014E1E5E71EE0FEF7D2F90390FFE7DD
:1044D00043F67000C4F20200006800F00201002000
:1044E000B0EB510F0ED0FFE7FEF7C2F90399401A67
:1044F00041F28931884204D3FFE703208DF8170089
:10450000F5E0E5E7FFE79DF80700012809D1FFE79F
:1045100043F64001C4F20201086820F080500860B0
:10452000FFE7FFE704988069002800F0DC80FFE7E0
:1045300043F60800C4F20200006800F00C000828EE
:1045400000F08580FFE70498806902285CD1FFE7CE
:104550006021C4F2472100200860FEF789F903902A
:10456000FFE743F60000C4F20200006800F00071AB
:104570000020B0EB516F0CD0FFE7FEF779F90399FB
:10458000401A032804D3FFE703208DF81700AEE09C
:10459000E7E70499C869D1F820C04B6A8A6A40EA03
:1045A0000C0040EA8310D2034FF6FF739A43A2F542
:1045B00080321043C96A40EA016043F60401C4F244
:1045C000020108606021C4F2472101200860FEF763
:1045D0004FF90390FFE743F60000C4F202000068C1
:1045E00000F000710020B0EB516F0CD1FFE7FEF737
:1045F0003FF90399401A032804D3FFE703208DF8FD
:10460000170074E0E7E721E06021C4F247210020B1
:104610000860FEF72DF90390FFE743F60000C4F2AF
:104620000200006800F000710020B0EB516F0CD068
:10463000FFE7FEF71DF90399401A032804D3FFE7AB
:1046400003208DF8170052E0E7E7FFE74AE00498FF
:104650008069012804D1FFE701208DF8170046E0AA
:1046600043F60400C4F202000068029004988069D6
:10467000012831D0FFE7029800F480000499C9694D
:10468000884229D1FFE7029800F03F000499096AA7
:10469000884221D1FFE7029847F6C071084004998B
:1046A000496AB0EB811F17D1FFE7029800F4403050
:1046B0000499896AC9034FF6FF729143A1F58031CD
:1046C000884209D1FFE7029800F070600499C96A36
:1046D000B0EB016F04D0FFE701208DF8170006E072
:1046E000FFE7FFE7FFE700208DF81700FFE79DF8E1
:1046F000170006B080BD000081B0009001B0704787
:1047000081B0009001B0704780B582B000900098F1
:1047100020B9FFE701208DF807003FE0009890F8EE
:104720003D0040B9FFE70099002081F83C00009867
:1047300000F038F8FFE70099022081F83D00009969
:1047400051F8040B02F082F80099012081F846002C
:10475000FFE70099012081F83E00009981F83F00B1
:10476000009981F84000009981F84100FFE7FFE7D8
:104770000099012081F84200009981F843000099D6
:1047800081F84400009981F84500FFE70099012075
:1047900081F83D0000208DF80700FFE79DF8070035
:1047A00002B080BD81B0009001B0704783B001902D
:1047B000019890F83D00012804D0FFE701208DF812
:1047C0000B006AE00199022081F83D000198016820
:1047D000C86840F00100C860019800680021C4F278
:1047E000010188423CD0FFE701980068B0F1804F9A
:1047F00036D0FFE70198006840F20041C4F20001A2
:1048000088422DD0FFE70198006840F60001C4F20D
:104810000001884224D0FFE70198006840F600417B
:10482000C4F2000188421BD0FFE70198006840F203
:104830000041C4F20101884212D0FFE701980068EC
:1048400044F20001C4F20101884209D0FFE7019857
:10485000006841F60001C4F20001884212D1FFE76E
:1048600001980068806800F0070000900098062812
:1048700007D0FFE701980168086840F00100086070
:10488000FFE706E001980168086840F00100086051
:10489000FFE700208DF80B00FFE79DF80B0003B049
:1048A0007047000081B0009001B0704780B584B0BF
:1048B000039003980068C06802900398006800693C
:1048C00001909DF804008007002824D5FFE79DF89B
:1048D0000800800700281DD5FFE7039801686FF0E6
:1048E0000200086103990120087703980068806935
:1048F000800720B1FFE70398FFF7D4FF06E0039895
:1049000000F0E2F8039800F0E3F8FFE703990020D5
:104910000877FFE7FFE79DF804004007002825D54A
:10492000FFE79DF80800400700281ED5FFE7039821
:1049300001686FF00400086103990220087703986A
:104940000068806910F4407F04D0FFE70398FFF708
:10495000A9FF06E0039800F0B7F8039800F0B8F854
:10496000FFE7039900200877FFE7FFE79DF80400C1
:104970000007002824D5FFE79DF80800000700285D
:104980001DD5FFE7039801686FF0080008610399DF
:104990000420087703980068C069800720B1FFE70A
:1049A0000398FFF77FFF06E0039800F08DF8039867
:1049B00000F08EF8FFE7039900200877FFE7FFE794
:1049C0009DF80400C006002825D5FFE79DF80800E3
:1049D000C00600281ED5FFE7039801686FF010009D
:1049E000086103990820087703980068C06910F4EB
:1049F000407F04D0FFE70398FFF754FF06E00398D9
:104A000000F062F8039800F063F8FFE703990020D4
:104A10000877FFE7FFE79DF80400C00778B1FFE7DC
:104A20009DF80800C00748B1FFE7039801686FF0E0
:104A300001000861039800F04FF8FFE7FFE79DF8D9
:104A400004000006002810D5FFE79DF808000006C6
:104A5000002809D5FFE7039801686FF0800008611E
:104A60000398FFF749FEFFE7FFE79DF804004006C3
:104A7000002810D5FFE79DF808004006002809D55A
:104A8000FFE7039801686FF040000861039800F0A9
:104A90002FF8FFE7FFE79DF804008006002810D5F7
:104AA000FFE79DF808008006002809D5FFE7039876
:104AB00001686FF0200008610398FFF721FEFFE70F
:104AC000FFE704B080BD000081B0009001B07047E6
:104AD00081B0009001B0704780B5006842F20001DB
:104AE000C4F20001884208BFFDF7C8FE80BD000087
:104AF00081B0009001B0704782B00190ADF8021013
:104B000002B0704780B584B00390002002900398F3
:104B100000684069C0B2C0090290039890F8410053
:104B2000212823D1FFE7029800B3FFE7FFE7FFE763
:104B30000398006850E8050F20F080000190FFE71F
:104B400001990398026842E805100028F0D1FFE7B8
:104B5000FFE70398806B28B1FFE70398806BFDF7B0
:104B6000F5F8FFE7039802F0C1F9FFE70398006842
:104B70004069C0F380100290039890F84200222808
:104B800023D1FFE7029800B3FFE7FFE7FFE70398B1
:104B9000006850E8050F20F040000090FFE7009902
:104BA0000398026842E805100028F0D1FFE7FFE70C
:104BB0000398C06B28B1FFE70398C06BFDF7C6F8F8
:104BC000FFE7039802F034F9FFE7002004B080BD4E
:104BD00080B586B005900598006844F60041C4F29F
:104BE000000188423BD1FFE70598FFF78BFF05994D
:104BF000002048640599202081F84200059981F839
:104C0000410005980068006804909DF8100010F0BD
:104C10000E0F09D0FFE7059800680068039005981B
:104C2000006840680290FFE79DF81000C00728B1B7
:104C3000FFE70598006800680190FFE742F25430F2
:104C4000C2F200000268D16841F01001D1604CF25C
:104C50005071C2F20001282200F00EFCFFE706B0FE
:104C600080BD000080B592B0119011980068006876
:104C7000109011980068C0680F9011980068406902
:104C80000E9000200D900C90109800F00F000D90E9
:104C90000D9888B9FFE79DF84000800600280AD5E6
:104CA000FFE79DF83C008006002804D5FFE7119837
:104CB00002F038F902E2FFE70D98002800F0C28008
:104CC000FFE79DF83800C00738B9FFE7BDF83C00A2
:104CD00010F4907F00F0B680FFE79DF84000C00719
:104CE00058B1FFE79DF83D00C00730B1FFE71199CB
:104CF000486C40F001004864FFE79DF84000400721
:104D000000280BD5FFE79DF83800C00730B1FFE75A
:104D10001199486C40F002004864FFE79DF840009C
:104D2000800700280BD5FFE79DF83800C00730B199
:104D3000FFE71199486C40F004004864FFE79DF8D4
:104D400040000007002811D5FFE79DF83C008006D1
:104D5000002805D4FFE79DF83800C00730B1FFE711
:104D60001199486C40F008004864FFE71198406CC6
:104D7000002866D0FFE79DF84000800600280AD58D
:104D8000FFE79DF83C008006002804D5FFE7119856
:104D900002F0C8F8FFE7119800684069C0F380107E
:104DA0000C901198406C0007002804D4FFE70C9881
:104DB00000283ED0FFE7119802F03AF811980068F9
:104DC0004069400600282FD5FFE7FFE7FFE711986D
:104DD000006850E8050F20F040000B90FFE70B99AA
:104DE0001198026842E805100028F0D1FFE7FFE7BC
:104DF0001198C06B98B1FFE71198C16B46F67140EE
:104E0000C0F6000008651198C06BFDF715F828B1D1
:104E1000FFE71198C06B016D8847FFE703E0119829
:104E2000FFF7D6FEFFE703E01198FFF7D1FEFFE79B
:104E300006E01198FFF7CCFE119900204864FFE7C7
:104E4000FFE73BE11198006B012840F01781FFE775
:104E50009DF84000C006002840F11081FFE79DF852
:104E60003C00C006002840F10981FFE7FFE7002071
:104E70000A901198006800680A90119800684068CC
:104E80000A900A98FFE711980068406940060028D8
:104E900040F19A80FFE71198C06B00684068ADF858
:104EA0002600BDF82600002875D0FFE7BDF82600D3
:104EB0001199898D88426EDAFFE7BDF826001199B5
:104EC000C8851198C06BC069B0F5807F58D0FFE7E6
:104ED000FFE7FFE71198006850E8030F20F48070A7
:104EE0000890FFE708991198026842E8031000282B
:104EF000F0D1FFE7FFE7FFE7FFE71198006850E810
:104F0000050F20F001000790FFE70799119802684C
:104F100042E805100028F0D1FFE7FFE7FFE7FFE7D1
:104F20001198006850E8050F20F040000690FFE758
:104F300006991198026842E805100028F0D1FFE7B1
:104F4000FFE71199202081F84200119900200863A1
:104F5000FFE7FFE71198006850E8030F20F010000A
:104F60000590FFE705991198026842E803100028B0
:104F7000F0D1FFE7FFE71198C06BFCF7E7FEFFE712
:104F80001199022048631198818DC28D891A89B2C6
:104F9000FFF7B2FD17E0BDF826001199898D884210
:104FA00010D1FFE71198C06BC069B0F5807F08D1C0
:104FB000FFE71199022048631198818DFFF79CFD4E
:104FC000FFE7FFE7FFE779E01199888DC98D401A67
:104FD000ADF812001198C08D00284ED0FFE7BDF843
:104FE0001200002849D0FFE7FFE7FFE711980068AB
:104FF00050E8030F20F490700390FFE70399119895
:10500000026842E803100028F0D1FFE7FFE7FFE75E
:10501000FFE71198006850E8050F20F001000290AA
:10502000FFE702991198026842E805100028F0D1C4
:10503000FFE7FFE71199202081F842001199002035
:105040000863FFE7FFE71198006850E8030F20F0BE
:1050500010000190FFE701991198026842E80310DF
:105060000028F0D1FFE7FFE711990220486311986B
:10507000BDF81210FFF740FDFFE71FE09DF840006C
:10508000000600280AD5FFE79DF83C00000600282E
:1050900004D5FFE7119802F02FF90FE09DF84000CA
:1050A000400600280AD5FFE79DF83C00400600288E
:1050B00004D5FFE7119801F005FFFFE712B080BDAE
:1050C00080B582B00090009820B9FFE701208DF8EC
:1050D000070040E00098806908B1FFE700E0FFE7C3
:1050E000009890F8410040B9FFE70099002081F84E
:1050F0004000009800F034F8FFE70099242081F880
:10510000410000980168C86820F40050C860009809
:1051100001F0BCFF00980168086920F49040086124
:1051200000980168486920F02A00486100980168E9
:10513000C86840F40050C860009900204864009A94
:10514000202182F84110009A82F8421000994863A9
:105150008DF80700FFE79DF8070002B080BD000052
:105160002DE9F04F87B00446006844F60001C4F210
:10517000000100268842CDE90566CDE90366029666
:1051800078D045F20001C4F20001884200F0DF80CF
:1051900044F60041C4F20001884240F06A810026D2
:1051A00043F630000196C4F20200016946F210088D
:1051B00041F4002101610169C4F2020801F40021F7
:1051C000019101990196016841F0040101600068B4
:1051D00002A900F00400019001984FF44060029091
:1051E0000220CDE90306032005900820069040F632
:1051F0000000C4F20200FDF72FF941F6A03508F1D6
:105200003000C2F200054FF000674FF48069C5E935
:1052100000072846C5E90266C5E90496C5E90666A1
:10522000C5E90866FCF7BAFF002818BFFBF794FD34
:10523000E563AC6341F6004508F16000C2F2000589
:105240004021C5E9000705F1080080E84202284630
:10525000C5E90566C5E907666E62FCF79FFF002891
:1052600000F0F880FBF778FD41F600453426C2F2E5
:105270000005F4E043F630000196C4F20200016933
:1052800046F2100841F4802101610169C4F202086C
:1052900001F48021019101990196016841F0080112
:1052A0000160006802A900F00800019001984FF425
:1052B000407002900220CDE90306032005900720EC
:1052C000069040F60000C4F2020000F58060FDF791
:1052D000C3F841F6205508F11800C2F200054FF05E
:1052E00000674FF48069C5E900072846C5E90266F2
:1052F000C5E90496C5E90666C5E90866FCF74EFFF0
:10530000002818BFFBF728FDE563AC6341F6805524
:1053100008F14800C2F200054021C5E9000705F187
:105320000800002280E806022846C5E90522C5E9F2
:1053300007226A62FCF732FF002800F08D80FBF73D
:105340000BFD41F680552726C2F2000587E00027B5
:1053500043F630000197C4F20200016940F60005EF
:1053600041F4801101610169C4F2020501F4801168
:10537000019101990197016802AE41F004010160B9
:10538000016846F2100801F00401019101990197AA
:1053900001684FF0020941F00801016000684FF018
:1053A000030A00F00800019001984FF48050029029
:1053B0004FF0080B28463146C4F20208CDE90397A6
:1053C000CDF814A0CDF818B0FDF746F80420CDE9CB
:1053D000020904A880E8800C05F580603146FDF7DD
:1053E0003BF841F66045C2F200054FF000664FF40D
:1053F00080692846C5E90086C5E90277C5E90497B2
:10540000C5E90677C5E90877FCF7C8FE002818BF8C
:10541000FBF7A2FCE563AC6341F6C04508F1A800C8
:10542000C2F200054021C5E9000605F1080080E848
:1054300082022846C5E90577C5E907776F62FCF760
:10544000ADFE58B1FBF788FC41F6C0453526C2F2E7
:10545000000504E0342602E0272600E03526304629
:1054600005210022A563AC63FDF7B8FA3046FDF7CD
:10547000ABFA07B0BDE8F08F80B584B0029001911F
:10548000ADF80220029890F84200202817D1FFE7DB
:10549000019820B1FFE7BDF8020020B9FFE7012025
:1054A0008DF80F000FE0029900200863029801991F
:1054B000BDF8022001F088FE8DF80F0003E0022005
:1054C0008DF80F00FFE79DF80F0004B080BD0000CD
:1054D00081B0009001B0704781B0009001B070477A
:1054E00081B0009001B07047FEE7000010B5002ABF
:1054F00008BF10BD02394FF0370C4FF0000E00BF4F
:105500000CEB1074B0F1204F4FEA107338BF03F169
:10551000300401F8024F0001013A81F801E0EFD1B7
:1055200010BD000082B00190FFE7019890ED000AE5
:1055300001209FED241AB4EE410AF1EE10FA00901A
:105540000EDBFFE7019890ED000A9FED1F1A002087
:10555000B4EE410AF1EE10FAC8BF01200090FFE757
:105560000098C00760B3FFE7019890ED000A9FED37
:10557000161AB4EE410AF1EE10FA0ADDFFE70198BF
:1055800090ED000A9FED121A30EE010A80ED000A3C
:1055900015E0019890ED000A9FED0A1AB4EE410A59
:1055A000F1EE10FA0ADAFFE7019890ED000A9FED9C
:1055B000071A30EE010A80ED000AFFE7FFE7B4E7C3
:1055C00002B07047000034C3000034430000B4430D
:1055D0000000B4C383B00290019101980178407833
:1055E00040EA01200299088001988178C07840EA59
:1055F000012002994880029908888988401AADF8EC
:105600000200BDF90200B0F57A6F05DDFFE70299EF
:10561000C8880138C880FFE7BDF9020010F57A6F2D
:1056200005DAFFE70299C8880130C880FFE70299D0
:10563000B1F90620088800EB42308860029890EDAE
:10564000020AB8EEC00A9FED051A20EE010A80EDAD
:10565000030A02990888888003B070470000343D2F
:1056600080B541F6503046F20041C2F20000C4F26B
:1056700000010622002380E80E0000F10C014FF427
:10568000003C4FF4001E81E8085083618383FCF7DF
:10569000DBF8002818BFFBF75FFB80BD80B541F643
:1056A000783046F60001C2F20000C4F20001062282
:1056B000002380E80E0000F10C014FF4003C4FF491
:1056C000001E81E8085083618383FCF7BDF8002841
:1056D00018BFFBF741FB80BD80B582B00020019070
:1056E00043F63000C4F202000168002241F40011C8
:1056F00001600068052100F40010019001980B2062
:10570000FDF76CF90B20FDF75FF90C200521002255
:10571000FDF764F90C20FDF757F90D200521002253
:10572000FDF75CF90D20FDF74FF90E200521002251
:10573000FDF754F90E20FDF747F90F20052100224F
:10574000FDF74CF90F20FDF73FF92F20052100222E
:10575000FDF744F92F20FDF737F902B080BD0000B6
:1057600010B588B001200021032206F04FFB40F263
:105770005C11C2F2000108604EF61840C0F600004D
:1057800090E80E50D0E905400191CDE9064001A80E
:10579000002102920393CDF810C0CDF814E004F07C
:1057A000A1FC41F66001C2F20001086008B010BD22
:1057B0002DE9F04F87B0002443F630000694CDE980
:1057C0000444CDE902440194C4F20200016840F2AD
:1057D000000941F0100101600168C4F2020901F002
:1057E0001001019101990194016809F5805841F077
:1057F00004010160016802AD01F004010191019909
:10580000019401684FF0030A41F0800101600168D2
:1058100001F08001019101990194016841F00101B9
:105820000160016801F00101019101990194016891
:1058300041F002010160016801F00201019101994A
:105840000194016841F0080101600068294600F0F8
:1058500008000190019849F2FF5002904046CDE9BE
:1058600003A4FCF7F9FD4EF2CF1009F5006BCDE96A
:10587000020A584629460494FCF7EEFD48F22F60D0
:10588000CDE9020A484629460494FCF7E5FDD020FC
:10589000CDE902040226484629460496FCF7DCFDC1
:1058A000302002A951C158462946FCF7D5FD4FF6D4
:1058B0009D4009F58067CDE9020A384629460494DF
:1058C000FCF7CAFD38462946CDE902640496FCF788
:1058D000C3FD4FF4D44002A951C140462946FCF70C
:1058E000BBFD4FF6FB40CDE9020A09F540602946B1
:1058F0000494FCF7B1FD4FF4007002904FF444148F
:1059000058462946CDE90346FCF7A6FD4FF48070C2
:1059100002A951C148462946FCF79EFD17200521E2
:105920000022FDF75BF81720FDF74EF807B0BDE841
:10593000F08F000080B542F2543044F60041C2F2CC
:105940000000C4F2000100234FF00C0C4FF4E132D0
:1059500080E80E00C0E90333C0E905C3C361FFF767
:10596000AFFB002818BFFBF7F7F980BD80B542F206
:105970009C3045F20001C2F20000C4F20001002395
:105980004FF00C0C4FF4E13280E80E00C0E9033315
:10599000C0E905C3C361FFF793FB002818BFFBF7FD
:1059A000DBF980BD80B542F20C3044F60001C2F252
:1059B0000000C4F2000100234FF00C0C4FF4E13260
:1059C00080E80E00C0E90333C0E905C3C361FFF7F7
:1059D00077FB002818BFFBF7BFF980BD80B541F603
:1059E000740040F20001C2F20000C2F20001002285
:1059F00002F026F9002818BFFBF7AEF941F6740053
:105A000040F22001C2F20000C2F2000102F034FBB9
:105A1000002818BFFBF7A0F941F6740040F2BC0162
:105A2000C2F20000C2F2000101F050FE002818BFCF
:105A3000FBF792F941F67400C2F2000002F0DEFBBF
:105A4000002818BFFBF788F980BD0000FEE70000C2
:105A500080B584B00390039890ED2E0A90ED381A2B
:105A6000B4EE410AF1EE10FA35DAFFE7039890ED53
:105A70002E0A90ED381AB1EE411AB4EE410AF1EE59
:105A800010FA28DDFFE7039890ED2F0AB0EEC00A68
:105A9000B0EE001AB4EE410AF1EE10FA13DBFFE7A4
:105AA000039890ED2F0AB0EEC00A9FEDC61A30EEB3
:105AB000010AB0EEC00AB0EE001AB4EE410AF1EEEF
:105AC00010FA08DAFFE7039991F8F20000F0F0000D
:105AD00081F8F200FFE7039890ED2F0A9FEDBA1AC4
